:100000000C9432060C944F060C944F060C9423303B
:100010000C944F060C944F060C944F060C944F060C
:100020000C944F060C944F060C94051B0C94C11AAB
:100030000C945B270C944F060C944F060C944F06BF
:100040000C944F060C944F060C944F060C944F06DC
:100050000C944F060C94DD1B0C944F060C944F0629
:100060000C944F060C944F060C944F060C944F06BC
:100070000C944F060C944F060C944F060C944F06AC
:100080000C944F060C944F060C944F060C944F069C
:100090000C944F060C944F060C944F060C944F068C
:1000A0000C944F060C944F060C944F0605010980E2
:1000B000A101850319012AB700150126B700950192
:1000C00075108100C0050C0901A101850419012AE0
:1000D000A002150126A002950175108100C005013E
:1000E0000906A1018506050719E029E71500250184
:1000F0009508750181020507190029EF15002501F2
:1001000095F075018102050819012905950575010C
:100110009102950175039101C00660FF0961A1017B
:100120000962150026FF00952075088102096315F4
:100130000026FF00952075089102C005010906A15F
:1001400001050719E029E7150025019508750181CA
:10015000029501750881010507190029FF15002680
:10016000FF00950675088100050819012905950508
:1001700075019102950175039101C0000000000016
:10018000000000000000000000000000000000006F
:100190000000000000000000000000000000007EE1
:1001A0000F00D4FFFFFFC700000078000000000030
:1001B0000000002A2B2800000000000000000000C2
:1001C00000000000000029000000002C1E34202147
:1001D0002224342627252E362D3738271E1F20218E
:1001E00022232425263333362E37381F04050607ED
:1001F00008090A0B0C0D0E0F101112131415161707
:1002000018191A1B1C1D2F3130232D350405060724
:1002100008090A0B0C0D0E0F1011121314151617E6
:1002200018191A1B1C1D2F3130354C20202020613D
:1002300062636465666768696A6B6C6D6E6F707126
:1002400072737475767778797A313233343536371C
:10025000383930524542545F2D3D5B5D5C233B276E
:10026000602C2E2F20202000DA0281FFD9F1DB2024
:10027000A4A62EAF00A0C0D30000A1C8D30000AE3A
:10028000D580A81F408D1420007F3F1F6432146466
:100290003214783C1E1E140A05556E6465660041D2
:1002A000646A757374005261697365004C6F776599
:1002B000720044656661756C74004C617965723AD0
:1002C00020003A002C206B00780080818283848596
:1002D000868788898A8B8C8D8E8F9091929394A03B
:1002E000A1A2A3A4A5A6A7A8A9AAABACADAEAFB086
:1002F000B1B2B3B4C0C1C2C3C4C5C6C7C8C9CACBF2
:10030000CCCDCECFD0D1D2D3D40000010101010198
:1003100001010101020202020202020202030303BE
:10032000030303030304040404040404050505058E
:10033000050606060606070707070708080808094E
:100340000909090A0A0A0B0B0B0C0C0C0D0D0D0EFA
:100350000E0E0F0F0F10101111111212131314148F
:10036000151516161717181819191A1A1B1B1C1D04
:100370001D1E1E1F2020212222232424252626275D
:100380002829292A2B2C2D2D2E2F3031323233348F
:1003900035363738393A3B3C3D3E3F404142434495
:1003A00045464748494A4C4D4E4F50515354555677
:1003B00058595A5B5D5E5F616264656668696B6C23
:1003C0006D6F7072737577787A7B7D7E808283859E
:1003D00087888A8C8E8F91939596989A9C9EA0A2DE
:1003E000A3A5A7A9ABADAFB1B3B5B7BABCBEC0C2E8
:1003F000C4C6C9CBCDCFD1D4D6D8DBDDDFE2E4E7AC
:10040000E9EBEEF0F3F5F8FAFDFFFFAA7F55402285
:1004100023252628292A2C2D2F3032333536383AF9
:100420003B3D3E4042434547494A4C4E505153554F
:1004300057595A5C5E6062646668696B6D6F717370
:100440007577797B7D7F81838587898A8C8E909271
:100450009496989A9C9E9FA1A3A5A7A8AAACAEAF7C
:10046000B1B3B4B6B8B9BBBCBEBFC1C2C3C5C6C7C1
:10047000C9CACBCCCDCED0D1D2D2D3D4D5D6D7D772
:10048000D8D9D9DADADBDBDBDCDCDCDCDCDDDDDDBA
:10049000DDDCDCDCDCDCDBDBDBDADAD9D9D8D7D7B6
:1004A000D6D5D4D3D2D2D1D0CECDCCCBCAC9C7C663
:1004B000C5C3C2C1BFBEBCBBB9B8B6B4B3B1AFAEA1
:1004C000ACAAA8A7A5A3A19F9E9C9A989694929047
:1004D0008E8C8A89878583817F7D7B79777573711F
:1004E0006F6D6B6968666462605E5C5A59575553FC
:1004F00051504E4C4A4947454342403E3D3B3A38B5
:1005000036353332302F2D2C2A2928262523220058
:10051000AF00AE2B0014001A00080015001700E011
:100520000004001600070009000A00E1001D001B7E
:1005300000060019000500000000000000E300773D
:100540007C2C002A00130012000C0018001C003440
:100550000033000F000E000D000B0029003800379B
:1005600000360010001100000000000000E60078D6
:100570007C28002B001E001F00200021002200E02C
:100580000000000000000000000000E1000000008A
:1005900000000000000000000000000000E3000177
:1005A000002C002A0027002600250024002300003C
:1005B0000000004F005200510050000000000000F9
:1005C00000000000000000000000000000E6000144
:1005D0000028002B001E021F02200221022202E03E
:1005E0000000000000000000000000E1000000002A
:1005F00000000000000000000000000000E3000117
:10060000002C002A0027022602250224022302359C
:1006100000310030002F002E002D00350231023055
:10062000022F022E022D02000000000000E6000151
:10063000002800007C0000000000000000000020F6
:100640007823782578277800000000217824782600
:1006500078287800000000000000000000E300019E
:10066000002C00000000000000000000000000005E
:10067000000000000000000000000000000000007A
:1006800000000000000000000000000000E6000183
:1006900000280009025B00030100A0FA0904000021
:1006A0000103010100092111010001224000070599
:1006B0008103080001090401000203000000092170
:1006C0001101000122220007058203200001070515
:1006D00003032000010904020001030000000921B6
:1006E00011010001226D00070584032000011201A1
:1006F0000002000000085346010001000102000151
:100700000C0343006F0072006E00650000001003D0
:1007100066006F006F007300740061006E000000DF
:10072000040309040000000000003E5B4F5B3E0034
:100730003E6B4F6B3E001C3E7C3E1C00183C7E3CDA
:1007400018001C577D571C001C5E7F5E1C000018A3
:100750003C180000FFE7C3E7FF0000182418000062
:10076000FFE7DBE7FF0030483A060E00262979292B
:100770002600407F05050700407F05253F005A3CC5
:10078000E73C5A007F3E1C1C0800081C1C3E7F00F2
:1007900014227F2214005F5F005F5F0006097F0163
:1007A0007F00006689956A0060606060600094A2C6
:1007B000FFA2940008047E04080010207E20100090
:1007C00008082A1C0800081C2A0808001E1010101F
:1007D00010000C1E0C1E0C0030383E383000060E87
:1007E0003E0E060000000000000000005F00000058
:1007F000000700070000147F147F1400242A7F2ABA
:100800001200231308646200364956205000000885
:1008100007030000001C224100000041221C0000D0
:100820002A1C7F1C2A0008083E080800008070303F
:1008300000000808080808000000606000002010A0
:10084000080402003E5149453E0000427F4000003E
:100850007249494946002141494D33001814127F1D
:1008600010002745454539003C4A4949310041219E
:1008700011090700364949493600464949291E00F1
:1008800000001400000000403400000000081422A2
:100890004100141414141400004122140800020131
:1008A000590906003E415D594E007C1211127C0030
:1008B0007F49494936003E41414122007F41414143
:1008C0003E007F49494941007F09090901003E4135
:1008D000415173007F0808087F0000417F410000FC
:1008E0002040413F01007F08142241007F404040EA
:1008F00040007F021C027F007F0408107F003E4101
:1009000041413E007F09090906003E4151215E0038
:100910007F091929460026494949320003017F0110
:1009200003003F4040403F001F2040201F003F4049
:1009300038403F0063140814630003047804030084
:100940006159494D4300007F4141410002040810B4
:100950002000004141417F000402010204004040A8
:100960004040400000030708000020545478400035
:100970007F284444380038444444280038444428FC
:100980007F0038545454180000087E0902001824CF
:10099000241C78007F080404780000447D40000097
:1009A0002040403D00007F102844000000417F406F
:1009B00000007C04780478007C0804047800384443
:1009C000444438007C1824241800182424187C007F
:1009D0007C080404080048545454240004043F4490
:1009E00024003C4040207C001C2040201C003C4057
:1009F00030403C004428102844004C9090907C00EB
:100A00004464544C44000008364100000000770064
:100A100000000041360800000201020402003C26EA
:100A200023263C0000000000000000000000000041
:100A300000000000C0E0F0F8F81800C0F0FCFEFF75
:100A4000FFFFFFFFFFFF7E0000000000000000002E
:100A500080C0E0E0E0E0E0E0E0E0C0800000000016
:100A600080C0E0E0E0E0E0E0E0E0C080000000E026
:100A7000E0C0C0E0E0E0E00000E0E0C0C0E0E0E0B6
:100A8000E0E0C0800000000080C0E0E0E0E0E0E0E6
:100A9000E0E0C08000000000000000000000000056
:100AA0000000E0F0F0F0E0ECEEF7F37020007C7C6A
:100AB0007C7E007E7E7E7F7F7F000080C0E07E5B4C
:100AC0004F5BFEC00000C000DCD7DEDEDED7DC00FE
:100AD000C000000000000000000000000000000056
:100AE00000000000000000000000000000F8FCFE14
:100AF000FFE000FFFFFFFFFFFF80FFFFFFFFFFFFA3
:100B0000FFFFFF1F0701000000000000000000FFC2
:100B1000FFFF8100000000000081C3C3C30000FF8D
:100B2000FFFF8100000000000081FFFFFF0000FFC9
:100B3000FFFF01000000000000FFFFFF01000000B8
:100B40000001FFFFFF0000FFFFFF9D1C1C1C1C1C81
:100B50001C9DDFDFDF00000000000000000000003F
:100B600000000F1F3F7F7F7F7F7F3F1E0C001F1FF6
:100B70001F3F003F3F3F7F7F7F00307B7F783020EB
:100B80002030787F3B0003000F7F0F0F0F7F0F0097
:100B90000300000000000000000000000000000052
:100BA00000000000000000000000000000030F1F14
:100BB0003F3F3F3F1F1F3F3F7F7F7F3F3F1F3F7FA5
:100BC0007F7F7F7C7878381C0F00000000000000D9
:100BD00001030707070707070707030100000000D5
:100BE00001030707070707070707030100000007BE
:100BF00007070000000000000007070700000000D2
:100C000000000707070000000103070707070707A1
:100C100007070301000000000000000000000000C2
:100C200000000000000000000000000000000000C4
:100C300000000000000000000000000000000000B4
:100C400000000000000000000000000000000000A4
:100C50000000000000000000000000000000000094
:100C60000000000011241FBECFEFDAE0DEBFCDBFD1
:100C700011E0A0E0B1E0E0E6F6E602C005900D92DA
:100C8000A43CB107D9F725E0A4ECB1E001C01D9266
:100C9000A03FB207E1F70E9482270C94D3320C9454
:100CA0000000CF92DF92EF92FF92CF93DF93CDB708
:100CB000DEB728970FB6F894DEBF0FBECDBF909178
:100CC0004701981305C09091E403903209F462C083
:100CD0008093470190E29093E403282F30E050E0A6
:100CE00040E029833A834B835C831092E303CA017B
:100CF000B9012AE030E040E050E00E94B931605D87
:100D0000603349F089819A81AB81BC81892B8A2B20
:100D10008B2B09F460E26093E2038AE0C82ED12CA9
:100D2000E12CF12C69817A818B819C81A70196014C
:100D30000E94B9312D833E834F83588729813A81A0
:100D40004B815C8160E22A3031054105510548F054
:100D50006D817E818F819885A70196010E94B931AE
:100D6000605D6093E10389819A81AB81BC8120E25F
:100D700084369105A105B10558F06D817E818F8182
:100D800098852AE030E040E050E00E94B931205DD3
:100D90002093E00380EE93E028960FB6F894DEBF30
:100DA0000FBECDBFDF91CF91FF90EF90DF90CF903E
:100DB0000895982FE091DC034091A30357E0E413DA
:100DC00002C080E008952E2F30E05E9FF0011124D4
:100DD000EC55FC4F8181681306C08081981303C0D5
:100DE00085818111EFCFF9013196E770E8CFFC01E1
:100DF000AC014C5F5F4F8FEF91E32191822728E098
:100E000030E087FF09C0880F892721503109C9F7D1
:100E1000E417F50791F70895880FF7CFE8EDF0E0B4
:100E200080818E7F80831092E2001092DA0010920F
:100E3000E100A0EEB0E08C9181608C9380818F778F
:100E4000808319BCA7EDB0E08C918E7F8C9380815C
:100E50008F7E80831092740308952091E400309176
:100E6000E50095E6A9012091EC00822F817020FF1A
:100E700006C08091E80080FF06C080E008952091C0
:100E8000E80022FD1AC080919903882389F08530FB
:100E900089F08091EB0085FD0FC02091E400309136
:100EA000E50042175307F9F29150E1F684E0089506
:100EB00082E0089583E0089581E0089580919B0386
:100EC00087FF13C08091E80082FF06C08091E80090
:100ED0008B778093E80004C0809199038111F2CF51
:100EE0000895809199038823D9F38091E80080FFC9
:100EF000F8CF8091E8008E77ECCF982F9093E9009F
:100F0000242F762F50E0891731F07091EC0020915A
:100F1000ED005091F00021FD07C09F5F973071F701
:100F20008093E90081E008953091EB003E7F30939B
:100F3000EB003091ED003D7F3093ED003091EB0000
:100F400031603093EB007093EC002093ED005093F0
:100F5000F0002091EE0027FDE0CF80E00895B0E0A2
:100F6000A0E0E5EBF7E00C945E31C8EDD0E08881BD
:100F70008F7E8883E7EDF0E080818160808384E06C
:100F800082BF81E08093740388818E7F888302EE24
:100F900010E0F80110821092DA0081EEC82ED12CF8
:100FA000F601108288818F778883888180688883A2
:100FB00088818F7D888319BC1092990310929A03BF
:100FC000109298031092970390EEE92EF12CF701FE
:100FD00080818B7F808388818160888342E060E0AC
:100FE00080E00E947D07F60180818E7F8083F8017A
:100FF000808181608083808188608083F701808127
:101000008E7F8083888180618883CDB7DEB7E8E0FA
:101010000C947A31FC01CB012091A1033091A20301
:101020002617370790F0009729F42091E8002E77D3
:101030002093E80040E0009751F4411108C08091EE
:10104000E80082FF31C080E00895C901F3CF20910C
:1010500099032223A9F12530A9F12091E80023FD6D
:101060002DC02091E80022FDEACF2091E80020FF6A
:10107000E2CF3091F3002091F200009719F0283070
:10108000310558F041E02830310509F040E0209169
:10109000E8002E772093E800CECF41914093F100F5
:1010A00001972F5F3F4FE9CF80919903882341F04B
:1010B000853041F08091E80083FFC1CF81E0089541
:1010C00082E0089583E0089508950895809176035D
:1010D000089587E797E7909301088093000888E1D7
:1010E0009AE00FB6F894A895809360000FBE909395
:1010F0006000FFCFA4E0B0E0E0E8F8E00C946431D9
:101100008FB7F89420916E0330916F034091700374
:101110005091710329833A834B835C838FBF69812C
:101120007A818B819C812496E2E00C9480319C0131
:10113000809146018823C9F08091720387FF15C012
:10114000E62FE695E695E695603FE0F4E20FF32F93
:10115000F11D677081E090E001C0880F6A95EAF7A1
:1011600080959281892382830895F9013296285FC0
:101170003F4F8191681303C0DF0111971C92E21762
:10118000F307B9F708959C01809146018823C1F0C7
:101190008091720387FF14C0E62FE695E695E695E9
:1011A000603FF8F4E20FF32FF11D677021E030E0AB
:1011B00001C0220F6A95EAF78281822B828308950B
:1011C000F90132968FEF90E04191641751F08F3F13
:1011D00019F4411101C0892F9F5F9630A9F78F3F05
:1011E00009F40895280F311D87FD3A95F9016283AE
:1011F0000895A3E0B0E0EFEFF8E00C9464319C01B7
:1012000080916B0390916C0382179307A1F0309348
:101210006C0320936B03E0916903F0916A033097AC
:1012200051F084E089833B832A830680F781E02D97
:10123000CE01019609952396E2E00C948031A3E05B
:10124000B0E0E5E2F9E00C9464319C018091670321
:101250009091680382179307A1F03093680320935D
:101260006703E0916903F0916A03309751F083E0DE
:1012700089833B832A830680F781E02DCE01019686
:1012800009952396E2E00C948031FA01882311F04D
:1012900009950895FB01FCCFE2EBF2E01182828117
:1012A00084608283089580915903982F9E7F61F412
:1012B000817082608093590380915C03893718F0B4
:1012C00088E780935C0308958634B0F3817084646A
:1012D000F1CFB0E0A0E0EFE6F9E00C945A31D82E5F
:1012E000C62EE901E42FF0E0E65FFC4F61110BC070
:1012F0004491942FE42FE98348839A83CDB7DEB7D6
:10130000ECE00C947631062F10E0E49186E0D89E54
:10131000700111242FEF30E0C701B9010E94403164
:101320008D2D90E0880F991FF5E5F69FA001F79F9E
:10133000500D1124841B950B982F990F890FA9012B
:10134000401B510BE49FD001E59FB00D11244B2FA2
:10135000C89E60011124CD2CDD245901AC18BD08B4
:10136000EA9D6001EB9DD00C11249D2D4901881A46
:101370009108809E5001819EB00C909EB00C11246B
:10138000AB2CBB242A193B09E29F8001E39F100D7F
:10139000112463307105D1F08CEFE81683E0F80674
:1013A00070F461307105B1F062307105B9F08FEF02
:1013B000E816F10408F09FCF9B2F412F9CCF64309B
:1013C000710579F066307105B9F395CF4D2D9E2FDB
:1013D000EB2F91CF4E2FED2D9B2F8DCF912F4E2F99
:1013E000F7CF9E2FE12F87CF80E00895F894E82F64
:1013F000E295EF70F0E041A18F7021E030E0B9019B
:1014000002C0660F771F8A95E2F7CB01962F909561
:10141000942391A392A1892B82A37894089590910B
:10142000720392FF06C0282F28712830F9F4877FB5
:10143000846093FF06C0282F28712831F1F4877E3D
:1014400084612091730320FF06C0382F3871383033
:10145000D9F4877F816021FF06C0282F28712831A9
:10146000D1F4877E816194FD877E0895282F2471B1
:101470002430F9F68B7F8860DCCF282F247124314B
:1014800001F78B7E8861DDCF382F3171313019F74C
:101490008E7F8860E0CF282F2171213121F78E7E49
:1014A0008861E1CF803E9105C1F1C8F48133910597
:1014B00009F47DC048F48932910509F46DC08A327F
:1014C000910509F47BC0089589339105D1F08238E4
:1014D0009105B9F08533910509F459C00895843E0A
:1014E0009105C1F138F4823E910521F1833E9105C9
:1014F00031F10895863E9105C1F1873E9105E1F1F4
:10150000089520917203237009F065C02091730340
:1015100023FF14C089E290E008952091720320FD1A
:1015200043C03091730330FF09C024FF4EC090E0E8
:1015300080E008952091720322FDF7CF0895209155
:10154000720322FD45C03091730330FD44C024FF77
:10155000F5CFEDCF2091730321FFF0CF809172037F
:1015600084FDE5CF87EE90E008952091720323FF7C
:10157000E5CF24FDDCCFF6CF2091720323FD2EC0F2
:101580003091730331FFE3CF84EE90E00895209112
:10159000720325FFD3CFBECF2091720325FD21C05A
:1015A0002091730323FFCACF89E390E0C7CF209136
:1015B000720326FFC3CF8AE290E008952091720360
:1015C00026FFBCCF81E390E0089583EE90E008957C
:1015D00082EE90E0089580EE90E0089586EE90E02F
:1015E000089585E390E008951F93CF93DF930E94C1
:1015F000520AEC018115924508F05FC0C11580E5E3
:10160000D80708F0DDC0C03ED10538F5CD3CD10586
:1016100008F0AEC0C83AD10580F4C53AD10508F04B
:10162000A4C0C130D10509F443C0CE010497813A6A
:101630009105F0F1D0E0C0E03BC0CE01885A91099D
:101640004B97C0F7C85AD0E0CC0FDD1FC85BDE4F08
:101650000990D881C02DD4642BC0C11590E4D9075E
:10166000F0F4C11520E2D20708F0C4C0C83ED1058D
:10167000F8F0CE019A9581159F41E0F68D2F0E94DA
:101680000F0A182FCE0199270E94520AC12FD0E0CD
:10169000DC2FCC27CC27DF71C82BD92B09C0CE017A
:1016A00099270E94520ACC27DF70C82BD92BD06A09
:1016B000CE01DF91CF911F910895C03882E5D80700
:1016C000B8F5C03692E5D90708F05BC0C03422E512
:1016D000D207C8F4C03282E5D80708F04BC02C2FDF
:1016E0002695269590E2299F900111248C2F8370D6
:1016F000C1E0D0E002C0CC0FDD1F8A95E2F7C22B1B
:10170000D32BDD68D5CF2C2F26952695277080E228
:10171000289F900111248C2F8370C1E0D0E002C07B
:10172000CC0FDD1F8A95E2F7C22BD32BDC68C0CF2C
:10173000C03C92E5D90760F48C2F8F71C03AD24536
:10174000A8F5C82FD0E0DC2FCC27C46FD06AB0CF6B
:10175000CE01805C9245809708F06CCFDC2FCC27BF
:10176000CC27DF71C06FD06AA3CFA497D064A0CF7D
:10177000D0659ECFCF71D0E0DC2FCC27C16FD06A6F
:1017800097CF2C2F26952695277080E2289F9001D1
:1017900011248C2F8370C1E0D0E002C0CC0FDD1F7C
:1017A0008A95E2F7C22BD32BDA6882CF0E940F0A08
:1017B000C82FD0E0DC2FCC27CC27DF71D06278CFC8
:1017C0008C2F8F710E940F0A55E0D695C7955A95B8
:1017D000E1F7CF70D0E0DC2FCC27282F30E084FF5A
:1017E00005C044E0220F331F4A95E1F7C22BD32BEB
:1017F000D0695ECF8D2F8F710E940F0A182FCE01F6
:1018000099270E94520AC12FD0E0DC2FCC27CC2789
:10181000DF71C82BD92BD2CF982F909580912402BD
:1018200089238093240208958091DC039091A3037F
:10183000981301C008958F5F8770FACF292F9830D1
:1018400078F5863068F590E036E0239F800D911D95
:101850001124682F677023E0969587952A95E1F704
:10186000FC01EE0FFF1FE80FF91FE851FE4F50E09B
:1018700040E080E0219130E0062E02C036952795A9
:101880000A94E2F721703327042E01C0220F0A9434
:10189000EAF7822B4F5F5F4F4330510559F70895A8
:1018A00080E00895292F983090F5863080F590E0FB
:1018B00036E0239F800D911D1124282F277041E0D1
:1018C00001C0440F2A95EAF723E0969587952A955B
:1018D000E1F7FC01EE0FFF1FE80FF91FE851FE4F83
:1018E00090E080E070E05191DF0111979B01082E9C
:1018F00002C0369527950A94E2F721702195252795
:10190000242325272C9301968330910561F70895B0
:101910008093730208959091730221E030E0F90101
:1019200001C0EE0F8A95EAF7D90102C0AA0FBB1FCA
:101930006A95E2F7EA2B01C0220F4A95EAF7892F50
:101940008E23E81305C0292B822F0E94880C08954E
:1019500020952923F9CF21E030E001C0220F8A959C
:10196000EAF720958091730282230E94880C0895E3
:10197000909101028095892380930102282F27707E
:1019800069F4891759F09091730392FF07C0869507
:10199000869586950E94AB0C10920102089521E075
:1019A00030E001C0220F8A95EAF780917302822B02
:1019B0000E94880C0895809325020895982F82959F
:1019C0008F7011F0982F84E0292F2695269511F01D
:1019D0008E5F922F969509F08F5F0895CF93DF93D6
:1019E000682F81E06A3019F06D3031F480E00E9498
:1019F0007C0DDF91CF9108958091EE059091EF05D8
:101A000026E0FC01A8EEB5E001900D922A95E1F7E1
:101A1000603E08F458C026E0FC0111922A95E9F7CF
:101A2000C091EE05D091EF0546E050E0BE0188EE92
:101A300095E00E9465329E01285E3340892B41F17A
:101A4000C90145E0969587954A95E1F741E050E058
:101A5000BA0102C0660F771F8A95E2F7CB01609149
:101A6000E6037091E703862B972BB9016B5F7F4FDD
:101A7000E5E076956795EA95E1F702C0440F551FBA
:101A80006A95E2F7842B952B9093E7038093E60306
:101A90002A5F3F4F4091E503642F70E0C9010E9427
:101AA0004031481B463010F4240F311D211572E0DF
:101AB000370710F030E020E028513C4F3093EF051D
:101AC0002093EE0596CFF6E06F9FB00111246C5D78
:101AD000784F46E050E00E944F32A2CFCF93DF9381
:101AE000EC01FE018491811103C0DF91CF91089533
:101AF0000E94EE0C2196F5CFCF93382FE091EE05A2
:101B0000F091EF05E85EF3402091E503622F70E06D
:101B1000CF010E944031281B822F332361F066E001
:101B20000E948B31C82FC15010F4CF91089580E2EC
:101B30000E94EE0CF8CF9F01280F311D2115324075
:101B400018F080E0F0E0E0E08E0F9F2F911D8851AB
:101B50009C4F9093EF058093EE05E7CF0E946E0DAA
:101B600081E00E947C0D08958091240290912302CF
:101B7000892B8093C601909122029923A1F0892B91
:101B80008093C601809146018823E1F18091720320
:101B900087FF38C08EE1E8ECF1E090E08150A0F5DD
:101BA00091111092220240E250E062E072E086EC75
:101BB00091E00E946532892B21F180E2E6ECF1E0B0
:101BC000A2E0B2E001900D928A95E1F7E0916903FD
:101BD000F0916A033097A9F080914601882359F06B
:101BE0008091720387FF07C08091C6018093C7016F
:101BF00086E08093C6010280F381E02D86EC91E0BF
:101C00000995089586E0C7CF2191222339F29F5F7D
:101C1000C5CF1092240280914601E8ECF1E08823C0
:101C2000B1F08091720387FF12C08EE1DF011D9237
:101C30008A95E9F790E080E00E941F0990E080E03B
:101C40000E94F908109223020E94B40D089586E0C4
:101C5000EDCFAAE2B0E0EFE2FEE00C9463318BE955
:101C600093E0FC0101962091F100208323E0833A68
:101C70009207B9F780919C03893009F456C0C8F4E3
:101C8000823009F4B3C0833009F482C0813071F12D
:101C90008091E80083FF85C280919B0390919C0313
:101CA0009A3008F07EC2E92FF0E0EB52FD4C0C9424
:101CB000DB318A3009F489C08B3051F780919B0366
:101CC000813231F780919F039091A003892B01F716
:101CD0008091E800877F8093E8000E945E078091F2
:101CE0009D03809346010E94090ED2CF80919B03F1
:101CF000813A71F68091E800877F8093E8008091B7
:101D00009F039091A003892B61F460E287E793E041
:101D100070E00E940A088091E8008B778093E800C9
:101D2000B7CF60E090E080E0F3CF80919B038132F9
:101D300009F0AECF80919F039091A0038D7F892BF6
:101D400009F0A6CF8091E800877F8093E80080911A
:101D5000E80082FF18C09091F3008091F200029792
:101D600031F48091F100813011F0863021F48091BE
:101D7000F100809376038091E8008B778093E800F0
:101D80000E945E0785CF809199038111E0CF80CFBB
:101D900080919B03813A09F07BCF80919F039091C2
:101DA000A003892B09F074CF8091E800877F80938E
:101DB000E8008091E80080FFFCCF8091460180938D
:101DC000F1008091E8008E77D9CF80919B0381321A
:101DD00009F05ECF8091E800877F8093E8000E9441
:101DE0005E0780919E038093750352CF80919B0381
:101DF000813A09F04DCF8091E800877F8093E80019
:101E00008091E80080FFFCCF80917503D8CF8038A7
:101E100099F0823809F0C5C180919F038F70873097
:101E200008F0BFC18093E9008091EB0085FB882713
:101E300080F91092E90006C0809197039091980371
:101E4000911182609091E800977F9093E8008093D1
:101E5000F1001092F1008091E8008E779EC18823F6
:101E600009F48CC1823009F09CC180919D038111DD
:101E70008FC180919F038F702FEF280F263008F0BD
:101E800090C18093E9002091EB0020FF81C1933045
:101E900031F48091EB0080628093EB0079C19091E6
:101EA000EB0090619093EB0021E030E001C0220F45
:101EB0008A95EAF72093EA001092EA008091EB00FD
:101EC0008860EACF81116DC110919D031F778091C9
:101ED000E3008078812B8093E3008091E800877F86
:101EE0008093E8000E945E078091E80080FFFCCFAD
:101EF0008091E30080688093E30082E0111183E029
:101F0000809399034EC18058823008F04AC14091B5
:101F10009D0350919E034C3D83E05807A1F583E05B
:101F20008A838AE289834FB7F894DE01139620E012
:101F30003EE051E2E32FF0E050935700E49120FFA0
:101F400003C0E295EF703F5FEF708E2F90E0EA30B4
:101F5000C0F0C7968D939D932F5F243159F74FBFE3
:101F60008091E800877F8093E8006AE270E0CE010C
:101F700001960E940A088091E8008B778093E80020
:101F800010C1C096E7CF80919F039091A003252FA9
:101F900033272330310509F44AC078F52130310563
:101FA00009F479C08BE590E0E3E9F6E022303105F1
:101FB00009F0F7C02091E800277F2093E8002091E6
:101FC000A1033091A2038217930708F49C0140E01B
:101FD0002115310509F064C0411162C08091E8000B
:101FE00082FDC9CF80919903882329F2853019F2A7
:101FF0008091E80083FFF2CFBECF2132310509F492
:102000003BC02232310509F0CCC08330910508F085
:10201000C8C0FC01EE0FFF1FE854FE4F0190F08195
:10202000E02D8B549E4FDC018C9190E011C0CA01D1
:102030009927413089F082309105B1F0892B09F060
:10204000B0C0E0E2F7E0E4918E2F90E0E0E2F7E04C
:10205000009709F4A6C0AECFEEE0F7E0E4918E2F32
:1020600090E0EEE0F7E0F4CFE0E0F7E0E4918E2FCF
:1020700090E0E0E0F7E0ECCF8330910508F091C00C
:10208000880F991FFC01E254FE4F0190F081E02D72
:1020900089E090E08FCF82E190E0EEEEF6E08ACF2B
:1020A00080919903882309F466CF853009F463CFC2
:1020B0008091E80083FD5FCF8091E80082FD8ECFA4
:1020C0008091E80080FF84CF9091F3008091F2002E
:1020D0002115310519F08830910550F041E008973D
:1020E00009F040E08091E8008E778093E80070CF9F
:1020F00044914093F1003196215031090196E8CF87
:10210000803809F04EC08091E800877F8093E80016
:1021100080919A038093F1009ECE811142C010916C
:102120009D031230F0F58091E800877F8093E800EE
:1021300010939A030E945E07112311F084E005C0FA
:102140008091E30087FDFACF81E08093990342E01C
:1021500061EC81E00E947D0742E261EC84E00E9434
:102160007D0742E261EC82E00E947D0742E260EC82
:1021700083E00E947D078091990313C080919D03A5
:10218000813079F481E0933009F080E08093980306
:102190001092E9008091E800877F8093E8000E9418
:1021A0005E078091E80083FF0AC08091E800877F86
:1021B0008093E8008091EB0080628093EB00AA9608
:1021C000E3E00C947F31882321F00E940C0C0E94E4
:1021D000B40D0895882339F090912402892B8093BF
:1021E00024020E94B40D0895682F882341F18CEFDA
:1021F000860F813A38F486EC91E00E9497080E949D
:10220000B40D089580E2860F883048F4677081E04D
:1022100001C0880F6A95EAF70E940C0CF0CF8BE59D
:10222000860F833028F490E080E00E941F09089513
:10223000685A6B3120F490E080E00E94F90808951C
:10224000CF93C82F8823D9F18CEF8C0F813AC8F532
:1022500080914601882311F18091720387FF1EC08F
:10226000EC2FE695E695E695F0E0EA53FE4F828185
:1022700090E04C2F477021E030E002C0220F331F66
:102280004A95E2F782239323892B91F06C2F86ECF9
:1022900091E00E9497080E94B40D0AC0E8ECF1E0BA
:1022A0008EEC91E02191C21789F38E179F07D1F729
:1022B0006C2F86EC91E00E94C3080E94B40DCF9170
:1022C000089580E28C0F883068F4C77021E030E018
:1022D00001C0220FCA95EAF780912402822B8093D5
:1022E0002402EBCF8BE58C0F833038F42C2F245253
:1022F000330BC9010E941F09E2CFC85ACB31F8F64F
:10230000EC2FF0E0EE0FFF1FE85BFE4F8081918124
:102310000E94F908D4CF0F931F93CF93DF93EC0162
:10232000FC0101900020E9F78F0101501109C0174D
:10233000D10728F0DF91CF911F910F9108958991D6
:102340000E94EE0CF4CF0F931F93CF93DF938B017A
:10235000EA0190919903943061F58093E9008FEF41
:102360009091E800815095FD06C095ED9A95F1F7A2
:1023700000008111F5CF8091E80085FF1AC00E940E
:102380002D07811111C08091E80085FD06C0809164
:10239000E8008E778093E800F2CFF80181918F01F9
:1023A0008093F100219779F78091E8008E778093F0
:1023B000E800DF91CF911F910F910895BC0143E098
:1023C00050E084E00E94A3110895CF93DF93D82FAB
:1023D000C92F80914601811113C048E050E06D2F54
:1023E000792F81E00E94A31180E2ED2FFC2FA7E757
:1023F000B3E001900D928A95E1F7DF91CF910895B6
:102400008091720387FF06C040E284E050E06D2FA8
:102410007C2FE8CF48E081E0F9CF609142018091C4
:10242000590380FF20C08091410143E0849FC00197
:10243000112489549D4F539A2BB1277F3BB13860AB
:102440005FB7F894FC01649FE00DF11D1124BF01FA
:1024500068177907D1F45FBF8FE594E00197F1F732
:1024600000C000000895809143019091440123E051
:10247000829FF0011124E954FD4F8917A0F61182C3
:10248000108212828F5F3396F8CFFC014191CF0109
:10249000E8E03BB9000000C047FF2BB9440F000043
:1024A00000C000C000C02BB900C0EA9591F7D0CFA2
:1024B000AEE0B0E0EEE5F2E10C9460318D879E87EE
:1024C000AD85BE8514961C91212F30E0D9010E9464
:1024D000F0319B01AC010E94063269837A838B83C1
:1024E0009C83E0E2F0E0E11BF109A5E5B0E09B018F
:1024F000AC010E94063269877A878B879C879F018F
:10250000DF010E94E8316D837E838F8398879B0172
:10251000AC010E9411329B01AC0169817A818B81EF
:102520009C81260F371F481F591F69857A858B8527
:102530009C850E94B931F22E822F90E079E27217C9
:1025400040F183E0289F9001112435952795122FA3
:10255000109500E085E5E82EEF18809145010817F9
:1025600038F10E940D12AD85BE8514969C9181E0D4
:10257000992319F0903219F48FEF809340018091E4
:102580004001890FED85FE8584832E96E6E00C944C
:102590007C3125E530E0D901A81BB90B9D01220F44
:1025A000331F2A0F3B1F37FFD0CF2F5F3F4FCDCFB9
:1025B0008E2D01FD8F2D20914301E22FE00FFF278B
:1025C000FF1F9F01220F331F2E0F3F1F29543D4F26
:1025D000412F193708F048E760915B030E946909B1
:1025E0000F5FBBCFCF92DF92FF920F931F93CF93DA
:1025F000DF93EC018C81811109C081E08C83109202
:10260000B60292E090933F0180933E011091430106
:102610009091440183E0189FF0011124E954FD4F8B
:10262000812F891778F100E093E0F92E6091450140
:10263000061770F10E940D1280913E012091B602A2
:10264000280F2093B60290913F01980F90933F017D
:10265000191654F4022E000C330B409145014150E1
:10266000550B2417350734F0819580933E01813056
:1026700009F41C82DF91CF911F910F91FF90DF90A1
:10268000CF9008951182108212828F5F3396C9CF46
:10269000C02ED12C70E0C6010E94A531810F482FB9
:1026A00050E02091B602022E000C330BC216D30666
:1026B000D4F020913F01022E000C330B2C153D0568
:1026C00094F08F9D9001112429543D4F40915C035B
:1026D000493708F048E760915B0380915A030E94F4
:1026E00069090F5FA3CFFA01EE0FFF1FE40FF51F7B
:1026F000E954FD4F118210821282F3CFB0E0A0E0C6
:10270000E4E8F3E10C945B31EC018A81BB24BA94D8
:1027100080FD02C0BB24B394A09045018C8181113F
:1027200009C081E0B8121EC08FEF8A0D8093B502F8
:1027300081E08C83F12CE12CEA14B8F00E940D1298
:102740008091B50291E0B9125AC0811153C08091B5
:10275000450181508093B5021C82CDB7DEB7EBE016
:102760000C9477311092B502E3CF009143010E0D26
:102770001F2D111DC801880F991F080F191F09541B
:102780001D4FF80111821082128234E0C32ED12C29
:10279000912C8091B502890D873344F166E30E9444
:1027A0009731892F082E000C990B8E159F05A9F4DF
:1027B00080915C038C9DA0018D9D500D1124559539
:1027C000479555954795493708F048E79801609136
:1027D0005B0380915A030E9469099B0CF1E0CF1AB8
:1027E000D108B9F68FEFE81AF80AA6CF87FFDACF3B
:1027F0008A0DD8CF81508093B502BC82AECF90E0D5
:1028000001966091450170E00E94A5318093B50268
:102810008C83A3CFEF92FF921F93CF93DF93EC01B2
:1028200010E0EE24EA94F12C60914501161770F047
:102830000E940D129A818C8190FF2AC08F5F8C8339
:10284000DF91CF911F91FF90EF9008952091430168
:10285000422F410F5527551FCA019A01220F331FDE
:10286000280F391F29543D4F40915C03493708F028
:1028700048E770E0C7010E94A531962F8C816091D6
:102880005B03199F800D11240E9469091F5FCCCF43
:102890008150D5CF9091590390FF0EC09091430184
:1028A0002091440133E0939FF0011124E954FD4F3E
:1028B000921718F00E940D1208958183608342835D
:1028C0009F5F3396F5CFA3E0B0E0E9E6F4E10C9426
:1028D00064319091590390FF0DC0493708F048E7E3
:1028E0009E012F5F3F4F0E9469094B8169818A8158
:1028F0000E944A142396E2E00C948031CF93DF9338
:10290000EC01E9E5F3E0438162818C810E9463146C
:102910008C818F5F8C83DF91CF910895CF93DF936C
:10292000EC01EC81F0E0E15FFB4F4491E9E5F3E07D
:10293000628181810E9463148C818F5F8C83DF911F
:10294000CF910895E9E5F3E080818E7F80830E9436
:102950004C09E2EBF2E08281816082830E940D12D9
:102960000895B0E0A0E0E7EBF4E10C945C31F82EC0
:10297000E92ED62EC72E8A0180915702AA24A3944D
:10298000B12C8A3018F48AE0A82EB12CC1E0D0E036
:102990006D2D7C2D8F2D9E2DF8010995811104C080
:1029A0002196AC16BD062CF4CDB7DEB7EAE00C9448
:1029B0007831CC9F9001CD9F300D300D112490E0E7
:1029C00080E045E34A95F1F70000019682179307EE
:1029D000C1F7DECF80913202811119C088EC90E0FE
:1029E0002091E30027FD10C0EFE3FCE93197F1F7F8
:1029F00000C000000197A1F782E0809332020E949C
:102A00000E071092990303C081E08093320281E0A7
:102A100090913202913011F080E0089508950E9463
:102A2000EA14882359F0E0916903F0916A03309722
:102A300029F00190F081E02D0995089580E0089536
:102A4000A4E0B0E0E6E2F5E10C9464310E94EA14FF
:102A5000882371F00E947A0869837A838B839C8330
:102A600069817A818B819C812496E2E00C9480318B
:102A70000E947A0869837A838B839C8380915802B1
:102A800090915902A0915A02B0915B0229813A813A
:102A90004B815C81280F391F4A1F5B1F29833A83B2
:102AA0004B835C83DDCF0F931F93CF93C82F10E030
:102AB00000E0893311F400E510E08C2F0E94201112
:102AC0000115110539F48C2F0E94F410CF911F913C
:102AD0000F9108958FE99FE00197F1F700C0000082
:102AE00001501109EDCF0E94090E2FEF84E39CE005
:102AF000215080409040E1F700C0000088E19AE05A
:102B00000FB6F894A895809360000FBE9093600074
:102B1000FFCFCF93DF93C9EAD1E060E0CE010E94FE
:102B20009F322196C11584E0D807B9F7DF91CF9184
:102B300008951F93CF93DF93962F122F632F843026
:102B4000D8F49830C8F44630B8F4C42FD0E0CC0F95
:102B5000DD1F2CE0929FC00DD11D112490E6899FAE
:102B6000C00DD11D1124CE0189960E949F32612F84
:102B7000CE018A960E949F32DF91CF911F910895D6
:102B8000AF92BF92CF92DF92FF920F931F93CF939A
:102B9000DF93B12CA12C00E0650110E013C0FE0111
:102BA000259134914F2D612F802F0E9499152296E7
:102BB000F39486E0F812F3CF86E0C80ED11C1F5FB5
:102BC000183039F0E601CC0FDD1FCD5EDA4FF12C65
:102BD000E6CF0F5F80E3A80EB11C0430E9F6DF9169
:102BE000CF911F910F91FF90DF90CF90BF90AF904A
:102BF0000895CF93C82F6FEF811163E285E290E0D3
:102C00000E949F326FEFC11168E086E290E00E945F
:102C10009F326FEFC11166E287E290E00E949F321F
:102C2000CF91089580E00E94F91560E088E290E07D
:102C30000E949F320E94C0150E94891581E00E9467
:102C4000F91508950F931F93CF93DF93843030F5D8
:102C5000683020F5463010F5C42FD0E0CC0FDD1FD2
:102C60002CE0629FC00DD11D112430E6839FC00D62
:102C7000D11D1124CE0189960E947B32082F10E0CD
:102C8000102F0027CE018A960E947B329801282BB4
:102C9000C901DF91CF911F910F91089590E080E0DD
:102CA000F8CF462F672F783038F4463028F4843038
:102CB00018F40E942216089580E090E00895B0E094
:102CC000A0E0E5E6F6E10C945F317C01009173022F
:102CD00080912502082BC3E0D0E010E0DC2EC80173
:102CE0000C2E02C0959587950A94E2F780FD09C0E5
:102CF0002197A0F7D12C8D2DCDB7DEB7E7E00C944E
:102D00007B31B7018C2F0E9451160E94F40A019763
:102D100079F3F1CFCF93DF93D82FC92F0E945F169D
:102D20006D2F7C2F0E9451160E94F40ADF91CF91E3
:102D30000895FC0184818823A1F0808191810E9403
:102D40008A16282F92959F70963091F060F4925FCA
:102D50009F70923030F481E0203F81F030F4283EC3
:102D600030F080E004C09A5FF3CF243FD1F708959C
:102D700081E0283E20F0213FA1F7F9CF0895089582
:102D8000A6E0B0E0E6ECF6E10C94633149835A83A7
:102D9000392F89819A81332399F0222389F00E9467
:102DA0005F16182F682F89819A810E94520C6981C1
:102DB0007A81812F0E9451162696E3E00C947F3190
:102DC0000E941E0C182FF3CF85E290E00E947B3208
:102DD000833289F486E290E00E947B32883059F495
:102DE00087E290E00E947B3291E0863209F090E029
:102DF000892F8170089580E0FCCFB0E0A0E0E3E08F
:102E0000F7E10C945E316C017B0164E670E088E7C9
:102E10000E948D2EEC018601EC0CFD1CD7FD0CC030
:102E2000F801849164E670E00E94FD2EEC010F5FD2
:102E30001F4F0E151F0591F70E947F2F81E0CD2BAC
:102E400009F080E0CDB7DEB7E8E00C947A318091EC
:102E5000650390916603911103C091E0892708955D
:102E6000882369F062E070E081E195E00E94FD1640
:102E7000811103C0809165030895109265038091CC
:102E80006503EBCFA5E0B0E0E8E4F7E10C94643132
:102E9000809165038D83809166038823F1F00E9401
:102EA0007A08DC01CB01805A9541AF4FBF4F809328
:102EB000610390936203A0936303B09364038D81D5
:102EC000811108C062E070E08FE095E00E94FD167D
:102ED000811108C0809165038D838D812596E2E084
:102EE0000C94803181E080936503F4CFB0E0A0E0E2
:102EF000ECE7F7E10C945A3149015A018B01D82FC4
:102F0000C92F0E94530964017501A401B50188E02D
:102F100090E00E94B1329401A501B8018D2F9C2F41
:102F200000E20E943432622F84E290E00E949F32DD
:102F3000CDB7DEB7ECE00C947631A3E0B0E0E3EA85
:102F4000F7E10C945D31F82EE62E042FC22E9091FD
:102F5000590390FF44C020915A03281308C0809160
:102F60005B03861304C080915C03841729F0809171
:102F7000B40282608093B402E92FE695AE2FB0E0F0
:102F8000AE56BE4F8C918093B2029E7F923059F51F
:102F9000402F093708F048E79E012F5F3F4F6E2D05
:102FA0008F2D0E9469094B8169818A810E944A1490
:102FB000F0925A03E0925B0300935C03CC2079F01B
:102FC0002091590360915D0370915E033F2D4E2D5A
:102FD000502F80915F03909160030E947617239693
:102FE000E9E00C947931823019F400915C03E0CF70
:102FF0008630B9F18930A9F18931D1F6E9516E2FC6
:103000006170B62EE695F0E0E65FFB4F1491D12C8F
:1030100060914501D61618F00E940D12C9CFD19EBD
:10302000C001112470E00E9440318F2DB11017C0F3
:10303000860F20914301622F6D0D7727771F9B012B
:10304000220F331F260F371F29543D4F402F0937BA
:1030500008F048E76E2D0E946909D394D9CF861BEA
:10306000E8CFF22EA5CFE9E5F3E0438121E1421B51
:1030700008F440E021E0628181810E949D1708955B
:10308000E9E5F3E0438121E1420F08F44FEF21E04D
:10309000628181810E949D170895E9E5F3E06281D4
:1030A00021E1621B08F460E021E0438181810E94FC
:1030B0009D170895E9E5F3E0628121E1620F08F4CC
:1030C0006FEF21E0438181810E949D170895E9E51A
:1030D000F3E0818121E0438162818A500E949D1743
:1030E0000895E9E5F3E0818121E043816281865F13
:1030F0000E949D17089580915D03882319F08150E7
:1031000080935D032091590330915A0340915B03F2
:1031100050915C0360915D0370915E0380915F0349
:10312000909160030E947617089580915D0383302B
:1031300018F48F5F80935D032091590330915A03F7
:1031400040915B0350915C0360915D0370915E035D
:1031500080915F03909160030E9476170895E9E5DE
:10316000F3E083E0808311828FEF828388E783839B
:103170001482A2EBB2E012968C91129783601296A1
:103180008C93758123E030E04FEF58E760E0868153
:1031900097810E94761708959091730392FB2227DE
:1031A00020F9281779F080FB92F9909373036091CE
:1031B00072037091730384E090E00E94BD3282E05C
:1031C0000E94B80C089590E080E00E948932863E0B
:1031D0009E4F19F40E94E416089580E00895A8E037
:1031E000B0E0E5EFF8E10C94633140913B0250917F
:1031F0003C0260913D0270913E022FB7F89480919D
:103200006E0390916F03A0917003B09171032FBF73
:10321000841B950BA60BB70B11E084369105A10515
:10322000B10578F10E942015DC01CB010296A11DA9
:10323000B11D89839A83AB83BC83809111019091E6
:103240001201815C9D4F20911001422F50E02530EA
:1032500010F044E050E0BE016F5F7F4F0E94723279
:1032600082E090E00E94CA30182F882351F00E941B
:103270007A0860933B0270933C0280933D029093E6
:103280003E02812F2896E3E00C947F31ABE0B0E062
:10329000ECE4F9E10C94643188E0E9E5F3E0DE0167
:1032A000119601900D928A95E1F78091B20290916A
:1032B000B302A091B40289879A87AB872B8540918E
:1032C00053025091540260915502709156023FB7DB
:1032D000F89480916E0390916F03A0917003B09168
:1032E00071033FBF841B950BA60BB70B843691056A
:1032F000A105B10510F4222319F1809119019091D3
:103300001A01815C9D4F20911801422F50E02C3012
:1033100010F04BE050E0BE016F5F7F4F0E947232B1
:1033200083E090E00E94CA30882369F00E947A0806
:103330006093530270935402809355029093560207
:103340001092B40281E02B96E2E00C948031EF926F
:10335000FF921F93CF93DF9300D000D00F92CDB791
:10336000DEB77B0190E080E00E94CA30182F8823EE
:1033700009F487C080910301482F50E0882311F0A1
:1033800041E050E06091040170910501615C7D4F66
:10339000CE0105960E947232409137025091380258
:1033A0006091390270913A022FB7F89480916E03C0
:1033B00090916F03A0917003B09171032FBF841B94
:1033C000950BA60BB70B84369105A105B10540F40A
:1033D00080E492E00E94F7069D81891709F451C0AC
:1033E00081E090E00E94CA3081111AC010E0809103
:1033F000330290913402A0913502B0913602F70168
:1034000080839183A283B383812F0F900F900F90BD
:103410000F900F90DF91CF911F91FF90EF90089543
:1034200080910B01482F50E0853010F044E050E0CF
:1034300060910C0170910D01615C7D4FCE01019690
:103440000E94723280E492E00E94F7069D81891307
:10345000CDCF0E947A086093370270933802809330
:10346000390290933A0289819A81AB81BC81809321
:10347000330290933402A0933502B093360211E0E8
:10348000B6CF8091400290914102A0914202B0914A
:10349000430289839A83AB83BC831111E4CFA7CF06
:1034A000A8E0B0E0E6E5FAE10C94643166EE7EEF68
:1034B00090E080E00E94BD3260E082E090E00E94F7
:1034C0009F3260E083E090E00E949F3210922502DC
:1034D00060E074E184E090E00E94BD3260E086E04C
:1034E00090E00E949F326FEF87E090E00E949F3251
:1034F00040E050E0BA0188E090E00E94B13260E024
:1035000084E290E00E949F3260E087E190E00E94B8
:103510009F3260E08CE090E00E949F3260E08DE09E
:1035200090E00E949F3219821A821B821C821D82A7
:103530001E821F82188648E050E068E170E0CE01EC
:1035400001960E948F3240E050E0BA0180E290E0A4
:103550000E94B13280E00E94F9150E94121640E0EC
:1035600050E0BA018FE090E00E94B13240E050E0BC
:10357000BA0183E190E00E94B1322896E2E00C9417
:1035800080311F920F920FB60F9211242F933F9309
:103590004F935F936F937F938F939F93AF93BF935B
:1035A000CF93DF93EF93FF93D091E900DF70809189
:1035B000EC00C82FC17080FDC0E81092E900809136
:1035C000F000877F8093F00078940E94290E10927B
:1035D000E9008091F00088608093F000CD2BCF70DF
:1035E000C093E900FF91EF91DF91CF91BF91AF912F
:1035F0009F918F917F916F915F914F913F912F910B
:103600000F900FBE0F901F9018951F920F920FB63C
:103610000F9211242F933F934F935F936F937F9358
:103620008F939F93AF93BF93EF93FF938091E100AC
:1036300082FF09C08091E20082FF05C08091E10015
:103640008B7F8093E1008091DA0080FF24C080911D
:10365000D80080FF20C08091DA008E7F8093DA004E
:103660008091D90080FF9BC080E189BD82E189BD46
:1036700009B400FEFDCF81E080939903809174032B
:10368000811109C00E940E070E94AF078091E200DD
:1036900084608093E2008091E10080FF17C08091F8
:1036A000E20080FF13C08091E2008E7F8093E200F1
:1036B0008091E20080618093E2008091D800806276
:1036C0008093D80019BC85E0809399038091E10034
:1036D00084FF29C08091E20084FF25C080E189BD7C
:1036E00082E189BD09B400FEFDCF8091D8008F7DB5
:1036F0008093D8008091E1008F7E8093E1008091DB
:10370000E2008F7E8093E2008091E20081608093EE
:10371000E20080919A03882309F447C084E08093F3
:103720009903809199038091E10083FF27C08091E4
:10373000E20083FF23C08091E100877F8093E10056
:1037400082E08093990310929A038091E1008E7F2A
:103750008093E1008091E2008E7F8093E20080916F
:10376000E20080618093E20042E060E080E00E943D
:103770007D078091F00088608093F000FF91EF91C9
:10378000BF91AF919F918F917F916F915F914F9179
:103790003F912F910F900FBE0F901F90189519BC5D
:1037A000109299031092740376CF8091E30087FD05
:1037B00002C081E0B4CF83E0B2CF78941F921FB6ED
:1037C0001F9211248F939F93AF93BF9380916E03A9
:1037D00090916F03A0917003B09171030196A11DA8
:1037E000B11D80936E0390936F03A0937003B09309
:1037F0007103BF91AF919F918F911F901FBE1F903A
:1038000018959C014FB7F89480916E0390916F03C7
:10381000A0917003B09171034FBF821B930B089569
:103820002FB7F89480916E0390916F03A09170036D
:10383000B09171032FBF0895FF920F931F93CF9301
:10384000DF93C62FD42F122FFC0185818823A9F086
:103850006093DF030E94101C9093DE038093DD03CE
:10386000C77081E001C0880FCA95EAF70E94EA108C
:10387000CDB7DEB7E5E00C947D318091DF036813AE
:1038800030C08091DD039091DE030E94011C883CD2
:10389000910538F500E20D0FCD17A9F0C770FF2490
:1038A000F3948F2D01C0880FCA95EAF70E94E310A8
:1038B000083048F48D2F877001C0FF0C8A95EAF715
:1038C0008F2D0E94EA10812F0E945315083080F638
:1038D000D77081E001C0880FDA95EAF70E94E31003
:1038E000C7CFC77081E001C0880FCA95EAF7F6CF4D
:1038F0000E94EA14882319F00E94101C08950E9467
:103900002015CB01089560915903669570E04BE056
:1039100050E083E391E00E945832892B19F481E052
:103920008093B3020E94781C9093AD028093AC0206
:103930008091B40284608093B402089590915903F9
:1039400090FF39C09170811137C0926090935903F4
:103950008091B40281608093B402662391F020913B
:10396000590330915A0340915B0350915C0360917D
:103970005D0370915E0380915F03909160030E94EC
:10398000761760915903669570E04BE050E083E351
:1039900091E00E945832892BB1F00E944C0981E0DD
:1039A0008093AF0220E040915C0360915B038091C3
:1039B0005A030E949D170895833210F09464C6CF75
:1039C000880F982BC3CF0E94831CE9CF9091590395
:1039D00096958FEF890F913009F482E261E00E94A1
:1039E0009E1C08958091590386958F5F833208F05D
:1039F00081E061E00E949E1C08959091590390FF20
:103A000008C09695981728F0961718F40E94F21C93
:103A1000089561E00E949E1C0895A8E0B0E0E3E1F3
:103A2000FDE10C9456318C01DC0114968C911497B5
:103A3000882309F4B8C021E04C9111965C9111974C
:103A400012966C91129713967C91139715969C91F0
:103A50000E94C0167C01F8019581992309F4AEC536
:103A6000970137572038310508F035C1FFE0FE15C2
:103A700008F489C08FEF93E00E947B32811183C0EC
:103A800069EAA62EBB24B394E11049C01A821982B8
:103A9000FE01339686E0DF011D928A95E9F75AE030
:103AA000452E6501BFEFCB1ADB0AC5010E947B32B0
:103AB00089831A82882309F466C0813009F077C0AF
:103AC0007501E2E0EE0EF11CC6010E947B328A8392
:103AD000882309F458C09FEF980F933070F5F3E0F6
:103AE000AF0EB11CC7010E947B328B83882309F47F
:103AF0004AC01C82DE0111967D01F701208122233C
:103B000081F2213009F093C091818281913009F0D6
:103B100050C0F2E0EF0EF11C0E94531551C0A114E9
:103B200024E0B20681F1C5010E947B32811101C0FF
:103B3000EA943FEFA31AB30AA7CF8430D9F442E046
:103B4000C42ED12CC7012FEFE21AF20A0E947B3259
:103B5000E1E0F0E0EC0FFD1FEC0DFD1D80838823FC
:103B600091F08C3749F4E2E0F0E0EC0FFD1FEC0D32
:103B7000FD1D10825701BECF3FEFC31AD30A87E065
:103B8000C816D104F9F680910102877061F0D8015E
:103B900015968C91882339F08091730382FF03C0BE
:103BA00082E00E94B80C2896E0E10C947231560134
:103BB000A1CF923049F422E0E20EF11C0E942011C4
:103BC000EFEFEE1AFE0A99CF933031F432E0E30EB4
:103BD000F11C0E94F410F4CF943021F08FEFE81A1A
:103BE000F80AEECF92E0E90EF11C30E020E0B701D8
:103BF0006F5F7F4FD70111964C918053990B8A309C
:103C0000910550F021503109D8F2EFE9FFE03197EA
:103C1000F1F700C00000F6CF429EF001439EF00D88
:103C200011249C012E0F3F1F842F7B01E0CFE22F38
:103C3000F0E0E555FE4F5490822F86958695869547
:103C400090E0FC01E556FE4F64902770712C022E27
:103C500002C0759467940A94E2F731E063227724F6
:103C6000FC01E557FE4F8490912C022E02C09594E2
:103C700087940A94E2F7A1E08A229924FC01E5588E
:103C8000FE4FC490D12C02C0D594C7942A95E2F778
:103C9000B1E0CB22DD246114710419F081EE0E94A1
:103CA00020118114910419F086EE0E942011852DB7
:103CB0000E9453158114910419F086EE0E94F410AD
:103CC0006114710419F081EE0E94F410CD2809F4FA
:103CD00077CF8CE221CF80E280932B01F0927C029F
:103CE000E0927B02970130522115304238F4D8011E
:103CF00016968C91807FF1F0F7010AC0970130543D
:103D00002115304108F5F8018681807FF70109F01F
:103D1000FF27ED33F10570F4E55DFD4FE491E0938D
:103D20002B01D80111968C91119780937E028C9172
:103D300080937D02F701E851FC47E730F10578F503
:103D4000E152FD4C0C94DB3197013A9521153F412E
:103D500098F29701205A32452032310558F3F70185
:103D6000D8CF26E241EE61EEC8010E941C1C0BCFA9
:103D700027E245EE65EEF8CF26E241EE60EEF4CFA5
:103D800027E245EE64EEF0CF26E241EE62EEECCFA4
:103D900027E245EE66EEE8CF28E241E0EBCF109255
:103DA000DF03970130572332310508F022C484E045
:103DB00090E00E9489329093730380937203F7011D
:103DC000E150F047E232F10520F4EA51FD4C0C9449
:103DD000DB31809172038160809372036091720382
:103DE0007091730384E090E00E94BD320E94090E3E
:103DF000CACE80917303886080937303EFCF809164
:103E000072038260E9CF809172038460E5CF809174
:103E100072038860E1CF809173038160EDCF809160
:103E200073038260E9CF809172038061D5CF809166
:103E300072038062D1CF809172038064CDCF0E94E3
:103E4000090E809172038068C7CF809172038C60E5
:103E5000C3CF809173038360CFCF809172038E7F35
:103E6000BBCF80917303877FC7CF809172038D7F13
:103E7000B3CF809172038B7FAFCF80917203877F26
:103E8000ABCF809173038E7FB7CF809173038D7F0B
:103E9000B3CF809172038F7E9FCF809172038F7D0D
:103EA0009BCF809172038F7B97CF0E94090E8091E8
:103EB00072038F7791CF80917203837F8DCF809132
:103EC00073038C7F99CF8091720382FB992790F9BD
:103ED00021E0922790FB82F990FB83F97DCF8091BE
:103EE0007303982F909591708E7F892B90FB81F9A9
:103EF00083CF90917203892F8F7B96FF80646CCF64
:103F00000E94090E90917203892F97FB87F98058C0
:103F100063CF61E08EE090E00E949F325FCF60E06F
:103F2000F9CF90917203892F8F7E94FF806154CFD7
:103F300090917203892F8E7F90FF81604DCF909179
:103F40007303892F877F93FF886056CF8091E601A6
:103F500069E2811165E386EC91E00E9497085EC3F7
:103F6000992309F438C3B7E7EB16BCE7FB0609F061
:103F700058C381E00E94CF0C43E062E081E00E94E0
:103F80008B0C01CE8091590380FF1EC0282F2E7FFD
:103F90002093590330915A0340915B0350915C0385
:103FA00060915D0370915E0380915F039091600367
:103FB0000E9476170E944C098091B4028160809320
:103FC000B4020E940D12DFCD81608093590361E03D
:103FD00086950E949E1CD7CD46EE5CE162EF7CE1A7
:103FE0000E944509D0CD42EF5CE166EE7CE1F8CF5E
:103FF00047E658E161E778E1F3CF41E758E167E64A
:1040000078E1EECF4DE458E16AE578E1E9CF4AE5A1
:1040100058E16DE478E1E4CF43E358E160E478E10E
:10402000DFCF40E458E163E378E1DACF4BE758E1D2
:1040300065E978E1D5CF45E958E16BE778E1D0CF84
:1040400061E081E0C6CF65E082E00E94FD1C9BCD6F
:1040500068E086E0FACF6EE089E0F7CF64E18FE0B8
:10406000F4CF67E185E1F1CF61E088E1B2CF62E2B0
:1040700089E1EBCFE7E7EE16ECE7FE0609F476C040
:10408000F8E7EF16FCE7FF0609F476C0F801858132
:10409000C080D180882309F492C0C6010E945F16B7
:1040A000F82E682FC6010E94520CB6018F2D0E9477
:1040B00051160E94F40AC82EF92E982ED801159692
:1040C000BC9015971696AC90A2943FE0A3228091E5
:1040D00001028770F1F0DB2CBB20E1F0892F807F9B
:1040E000803451F080E28C0D883098F0A11004C02B
:1040F000892F807E803269F08091730382FF09C02E
:1041000082E00E94B80C809101028770DD24D39474
:104110008111D12CEF2CE2942FE0E222B8E0EB16D3
:1041200009F459C1BE1508F485C0E3E0EE1508F4A2
:104130004BC08F2D807FFF2DFF70FF2E21E02E15AD
:1041400008F08CC0803219F0F29480EFF8228C2DA8
:10415000992009F4BAC0A1E09A1609F400C1BB2065
:1041600009F40CC1AA2009F4CEC08FC081E00E94DE
:10417000AB0C02CF82E0FECE82E0F9CFBBE5EB16BE
:10418000BCE7FB06D1F0ECE5EE16ECE7FE0609F025
:104190007DCF8091730382FB882780F991E0892786
:1041A0000E94CC1873CF6FEF7FEF90E080E00E9409
:1041B000BD320E94731581E0F3CF80E0F1CFC601DC
:1041C0000E941E0CF82E71CF34E0E31609F4E7C00C
:1041D000AE2DA850BB0B149710F40E940F15DD20D4
:1041E000A9F08091010280FD11C0F8011582869529
:1041F000869586950E94CF0CC8010E940D1D809166
:1042000001028695869586950E94AB0C20E0D80128
:104210004C9111965C91119712966C91129713968E
:104220007C91139714968C91149715969C910E94EB
:10423000C016B9CC89E0E81609F43CC186E08E0DC1
:104240008F70823028F68C2D92EF991244C18F2DF9
:104250008F71B1103DC10E94CF0CBACF882319F0E5
:10426000F29490EFF9228C2DBB20B9F0FF2069F079
:1042700090E29C0D983010F0C11009C0909124027A
:10428000F92AF09224020E94B40D8C2D2EC0909138
:104290002302F92AF0922302F6CF0E94F410FF20A5
:1042A00009F496CF80E28C0D883010F0911004C094
:1042B0008F2D0E940C0C06C0F09490912302F922DD
:1042C000F09223020E94B40D83CF8091730382FD8C
:1042D00016C0BB2069F0FF2039F090912402F92A22
:1042E000F09224020E94B40D80E00E94201170CF51
:1042F00080E00E94F410FF2009F46ACFD9CFBB20E0
:10430000A1F0A11004C08F2D0E94EA1061CFB1E08E
:10431000AB125ECF909122028F2D8923F81609F4FB
:1043200057CFF92AF092220253CFA11051CF8F2DEF
:104330000E94E310909122028F2D892329F08F2D66
:1043400080958923809322029091E7018F2D892304
:1043500009F43ECFF094F922F092E70139CFBB2067
:1043600029F0E5E0EA1508F433CFCDCFF4E0FA15F3
:1043700008F42ECF8F2D0E94E3102ACFAA20D1F36C
:10438000893349F42FEF37EE83E0215030408040ED
:10439000E1F700C000008C2D0E94F41019CF8F2D82
:1043A00086958695837069F0813009F011CF8C2D48
:1043B0009F2D9370B11002C080E090E00E94F90838
:1043C00007CF8C2D9F2D9370B11002C080E090E03C
:1043D0000E941F09FDCE8F2D837099F5B110F8CE84
:1043E0004C2D429546954770440F440F8C2D8F708D
:1043F000042E01C0880F0A94EAF72C2D2071C4FE08
:1044000007C02FE030E001C0220F4A95EAF720955F
:104410003F2D369536953370323071F0333051F090
:1044200040912502313029F0822B84230E94DB0C3D
:10443000CFCE842B822BFACF282B80912502822786
:10444000F5CF8695BB2011F08F2D8170882309F45C
:10445000BFCE4C2D429546954770440F440F8C2D8E
:104460008F70042E01C0880F0A94EAF72C2D20715A
:10447000C4FE07C02FE030E001C0220F4A95EAF7E2
:1044800020953F2D369536953370323071F03330AC
:1044900051F040917302313029F0822B84230E9425
:1044A000880C96CE842B822BFACF282B8091730216
:1044B0008227F5CF9F2D9F70F92EBB2029F0892FE1
:1044C0000E94CF0C8C2D20CF8C2D0E94E3108F2DBD
:1044D0000E94AB0C7DCEA2EFA91570F0B0EF9B1639
:1044E000D1F0E1EF9E1691F0BB2009F457C0A11066
:1044F000CCCE8F2D8F71AFCEF3EF9F1619F124EF35
:104500009212F2CF8091730382FD28C08F2D8F719C
:10451000BB20F1F2A0CEBB2081F034E03A1508F4C4
:1045200057CE2F2D2F7181E090E001C0880F2A9582
:10453000EAF7909173028927B2CF85E08A1508F4D3
:1045400047CEEFCF80E0BB2009F4A9CF9F2D9F710C
:1045500081E001C0880F9A95EAF7A1CFBB2099F0BE
:104560009F2D9F71F92E892F0E94CF0C809173038C
:1045700082FF07C0A8E0FA9EC001112483608093E7
:1045800001028F2D68CE81E00E94B80CB1E0BA150F
:1045900008F01ECE82E00E94B80C1ACEAA2059F074
:1045A000893309F0F8CEEFEFF7EE23E0E150F04069
:1045B0002040E1F7EECE8F2D8F718ACFF701E851C1
:1045C000FC47E730F10508F4BBCBB6E1EB16BCE7DE
:1045D000FB0609F4BBCC809124028272F701E05201
:1045E000F847E531F10508F045CDE85FFC4C0C9447
:1045F000DB31E6E1EE16ECE7FE0609F0B1CC809186
:1046000024028A7A91E009F490E09093E60169E24D
:10461000811165E386EC91E00E94C3080E94B40D0D
:10462000B2CAF8E7EF16FCE7FF0609F4A3CD2AE5C6
:10463000E2162CE7F20609F4BECD08F09FCD81E02A
:10464000E8168CE7F80609F4B4CD93E0E9169CE788
:10465000F90609F4A8CDE114ACE7FA0609F016CD85
:104660000E94090EFFEF24E33CE0F150204030406F
:10467000E1F700C000000E946908CF93DF938091AA
:104680000002807F09F04DC08091FF01882309F46A
:1046900048C0E091DC035091A303C091FB01D0918D
:1046A000FA016091FC017091FD0147E05E17C9F1CC
:1046B0008E2F90E0E49FF0011124EC55FC4F2481F3
:1046C000222391F1489FF001499FF00D1124DF0151
:1046D000AC55BC4F11962C9111972C1325C02C91E1
:1046E0002D1322C015962C91159721111DC01296DD
:1046F0002D913C91261B370B283C3105A8F4809165
:1047000000028F70806180930002E655FC4F80812B
:104710008F70806180838AEF91E00E940D1D0E945E
:10472000140CDF91CF910895FC013196E770BECF54
:10473000ADE0B0E0EEE9F3E20C945A318C0186E092
:10474000F801DE01189601900D928A95E1F7F801C3
:104750008481E5809AEFA92E91E0B92E9091FE0117
:10476000911128C0882319F1EE20F1F0C8010E94B0
:104770009916F82E8823C1F087E0F801D501019041
:104780000D928A95E1F78091FE01813031F480919C
:10479000FA019091FB010E948A160E943D238F2D01
:1047A0002D96ECE00C947631C8010E940D1DFF247B
:1047B000F394F5CFD080C18082809380F090FF0188
:1047C0002091FC013091FD01A401421B530BFF20FD
:1047D00009F4BCC0483C510508F092C08823F9F2A6
:1047E0009091FB0180910002282F207F09F056C094
:1047F000C91214C09091FA01D91210C0E11048C03A
:104800008F708061809300028AEF91E00E940D1DFD
:1048100080910002F8018683F12CC1CFE11038C0ED
:104820006C2D8D2D0E94D9066C2D8D2D0E94D906E0
:10483000E82E8111F1CFD886C986888599850E9496
:104840008A16292F22952F70903458F49F702230A9
:1048500088F0992399F0F8019681907F79F4FE2CE5
:104860009ECF2A5F2F70223068F0C8010E940D1D74
:10487000EF2CF5CF992311F0882389F3805E8830DF
:1048800070F3F3CF803F58F3815F833040F3EDCF77
:1048900080910002816080930002BECFC91207C0E0
:1048A0009091FA01D91203C0EE2009F470C0C8013A
:1048B0000E949916882309F477CFEE2009F474CF6B
:1048C00080910002803288F02091FA013091FB0142
:1048D0003A8329839C828B829091FE019D831E8264
:1048E0008F83CE0101960E940D1D87E0F801AAEF8B
:1048F000B1E001900D928A95E1F70E943D2357CFD8
:1049000090910002292F207F51F48AEF91E00E94BC
:104910000D1D87E0F50111928A95E9F77DCF882377
:1049200009F43DCF8091FB018C11C1CF8091FA0138
:10493000D812BDCFE110BBCF9683C8010E940D1DD8
:1049400087E0F50111928A95E9F729CF483C510596
:10495000B8F7882309F42BCFFE2CEE2009F424CFDE
:104960008091FB018C1120C08091FA01D8121CC0EB
:104970008091000280FD0FC0982F907F61F08683A8
:10498000903F31F0982F907F905F8F70892B8683B6
:10499000C8010E940D1D87E0F801AAEFB1E0019067
:1049A0000D928A95E1F7FBCEC8010E9499168111FC
:1049B0009CCF80910002816080930002C8010E9418
:1049C0000D1DEDCEABE1B0E0E8EEF4E20C94623107
:1049D0004E8B5F8B688F798F8A8F192F9B8F9111E8
:1049E000109223021D8A86E0FE017696DE011F9654
:1049F00001900D928A95E1F70A8D002341F021E0A4
:104A00004F85588969897A89C8010E94C0160B8B25
:104A10001C8B87E0FE013F96DE01189601900D92F7
:104A20008A95E1F7CE0108960E94982381110CC067
:104A300087E0FE013896DE01119601900D928A956D
:104A4000E1F74C8541110BC017E08091DC03909198
:104A5000A303891332C06B96E4E00C947E3120915D
:104A6000A30330E0C9010196877099275091DC03B8
:104A700058171906A1F04D8397E0929FD001939F9C
:104A8000B00D1124AC55BC4FFE01319601900D9232
:104A90009A95E1F78093A3030E94140CD5CF0E944E
:104AA000090E1092A3031092DC0387E0EAEFF1E015
:104AB000DF011D928A95E9F7C7CF819FC0011124BC
:104AC0008C559C4F0E949823882329F28091DC0307
:104AD00090E00196877099278093DC03B6CFA7E119
:104AE000B0E0E5E7F5E20C945A311D861C86FE0124
:104AF0003E9686E0DF011D928A95E9F780E8E82E70
:104B000081E0F82E10E000E0CC24C394D12C2AE8F8
:104B1000A22E21E0B22EF70181917F018F3F09F48F
:104B200045C0F894E82FE295EF70F0E021A18F7076
:104B3000A60102C0440F551F8A95E2F7CA01922FC1
:104B4000982B91A392A18095892382A3789400C089
:104B5000E4E8F1E031E0912C21912F3F09F470C09D
:104B6000A22FA295AF70B0E090968C9190E02F703C
:104B700002C0959587952A95E2F780FD61C0832F45
:104B8000982A330FAE16BF0639F7F70131978081A7
:104B90008F3F11F00E94F60950EA5A95F1F7ECE0C8
:104BA000F0E0EC0FFD1FE00FF11F90820F5F1F4F31
:104BB0000430110509F0AFCF48E050E0BE01645F5A
:104BC0007F4F8CE592E00E9465329C01892B49F071
:104BD00088E0FE013C96ACE5B2E001900D928A952A
:104BE000E1F700916502232B69F181E080932A02AD
:104BF0000E94101C90932902809328028091280221
:104C0000909129020E94011C059700F110E00C55BB
:104C10001D4F44E050E06CE572E0C8010E9465322F
:104C2000E12C892B51F084E0ECE5F2E0D801019011
:104C30000D928A95E1F7EE24E39410922A0207C0C0
:104C400080E09ECF80912A028111D8CFE12C0E9472
:104C5000EA14F82EE0916502882309F47DC01A82D7
:104C600019821C821B820E2F10E00C551D4F809163
:104C700057028A30D8F547EA59E1BE016F5F7F4F8E
:104C8000C8010E94B114882309F455C04FEE58E1C1
:104C9000BE016F5F7F4FC8010E94B114882309F4E1
:104CA0004AC046E459E1BE016F5F7F4FC8010E94D0
:104CB000B114882309F43FC0109257028091640216
:104CC00090E044E050E0BE016F5F7F4F8C559D4FF8
:104CD0000E94653221E020933102892BF1F4F12CFE
:104CE0008F2D8E296796ECE00C94763180912B0203
:104CF00090912C020E94011C843F914008F0BBCF90
:104D000080913102882359F384E0FE013196DF015E
:104D10001D928A95E9F710923102E0916402F0E069
:104D2000EC55FD4F89819A81AB81BC818083918351
:104D3000A283B383D5CF809157028F3F31F08F5F2D
:104D4000809357028A3008F4B9CF0E94101C9093C8
:104D50002C0280932B02D4CFF0E0EC55FD4F8081E4
:104D60009181A281B3818093400290934102A093EC
:104D70004202B093430280E492E00E94F7068093DF
:104D80003F028090440290904502A0904602B0906D
:104D9000470280912D0290912E02A0912F02B09196
:104DA000300288169906AA06BB06D1F080922D0221
:104DB00090922E02A0922F02B09230020E94EA142A
:104DC00081110EC00E947A08861A970AA80AB90AA9
:104DD0008092580290925902A0925A02B0925B02BD
:104DE0008BE0E8E4F2E0DE01119601900D928A95E5
:104DF000E1F7809148028695D0904902C0904A021E
:104E0000B0904B0200915102109152021092520246
:104E1000112309F465CF10FF10C099819170282FDC
:104E2000220F922B998390FF1CC09091590391609F
:104E30009093590360E00E949E1C11FF06C020E081
:104E40004B2D6C2D8D2D0E949D1712FF04C0002349
:104E500059F00E94831C13FF43CF81E08093AF027F
:104E60003FCF0E94A214E9CF0E944C09F4CFA6E0E4
:104E7000B0E0EDE3F7E20C9462310E94101C8C016B
:104E800080912602909127028017910781F0198264
:104E90001A820E94101C682F49815A81792F80E064
:104EA00090E00E94E22410932702009326022696A7
:104EB000E4E00C947E311F921FB61F9211248F9351
:104EC0009F93AF93BF9380916D03811113C0809125
:104ED0006E0390916F03A0917003B091710341969E
:104EE000A11DB11D80936E0390936F03A093700377
:104EF000B0937103BF91AF919F918F911F901FBE8F
:104F00001F901895CDB7DEB7A6970FB6F894DEBF01
:104F10000FBECDBF85B7806885BF85B7806885BF68
:104F200084B7877F84BF0FB6F894A89580916000FE
:104F3000886180936000109260000FBE80E890E06E
:104F40000FB6F89480936100909361000FBE84EFD8
:104F500099E09093C5018093C4010E940E070E94BE
:104F6000AF078091E20084608093E20078948091A2
:104F700099038823A1F01091E9001F709091EC0033
:104F8000892F817090FD80E8182B1092E9008091A4
:104F9000E80083FD0E94290E1F701093E90082E053
:104FA00084BD93E095BD9AEF97BD80936E001092FB
:104FB00058021092590210925A0210925B020E94FB
:104FC000E416811102C00E9412160E94EA14809316
:104FD000200180912001882309F475C010924101BD
:104FE0008BE1809342010E94EA1481110E94DD2F1F
:104FF000809120018091200194E0811190E09093B4
:10500000650284E0891B8093640284E90E94F609AA
:1050100086E60E94F60987E90E94F60986EC0E945E
:10502000F60904E811E04AE8E42E41E0F42ED80144
:105030008D918D018F3F11F00E94F609E016F10667
:10504000B1F788E0E4EAF2E0DF01282F1D922A950B
:10505000E9F7ECE5F2E0DF011D928A95E9F70E949D
:10506000E318811102C00E94501A82E090E00E9471
:105070007B328093670284E090E00E9489329093B3
:105080007303809372030E946F25BFEFE6E7F1E0A0
:10509000B150E040F040E1F700C000000E946F25F1
:1050A0000E94EA14E4E08111E0E0F0E0EC55FD4FED
:1050B000808181FF0CC06FEF7FEF90E080E00E9465
:1050C000BD320E9469088BE1809341018ACF83E061
:1050D00090E00E947B320E94DB0C0E94EA14811156
:1050E00034C182E080939F0280E88093E5030E94B0
:1050F000872E6BE070E08EE792E00E94FD16882319
:1051000009F443C080919F0265E070E081FD1FC1FA
:1051100089E792E00E94FD168823B9F16DE070E006
:1051200087E692E00E94FD16882379F10E947A08B2
:1051300069A37AA38BA39CA3DC01CB01805A954180
:10514000AF4FBF4F8093610390936203A0936303BB
:10515000B0936403E8EEF3E080E092E0DF019C01AD
:105160001D9221503040E1F7F093EF05E093EE05FA
:105170008FEF9FEF9093E7038093E60381E08093A6
:105180006603809365031092A002809166028111EC
:1051900075C00E94E318811104C00E94501A0E9439
:1051A000AF1888E090E00E9483326B017C0184E2BA
:1051B00090E00E947B32282F30E040E050E060E039
:1051C00070E080E090E000E20E9419322601370191
:1051D0002C2935294E2957292093590330935A03F6
:1051E00040935B0350935C0360935D0370935E0395
:1051F00080935F03909360038091B40283608093F7
:10520000B4022E7F61F50E94AF1888E090E00E9402
:1052100083326B017C0184E290E00E947B32282F74
:1052200030E040E050E060E070E080E090E00E941C
:10523000193226013701C22A35294E295729C09231
:10524000590330935A0340935B0350935C0360937C
:105250005D0370935E0380935F03909360030E94ED
:1052600053090E944C098091590380FF04C060E0FB
:1052700086950E949E1C81E0809366020E94EA143B
:10528000811102C00E94E02F81E291E090936A03B5
:10529000809369033AE0832E912CA12CB12C80914C
:1052A000990300E112E1853009F48EC00E946F2558
:1052B00008E612E024EAE22E22E0F22ED701F801FD
:1052C00091918D9122E0E037F20709F487C0981799
:1052D000B9F30E94EA14482ED12C33243394D70119
:1052E000CD907D01F80151908F015C1429F15C246F
:1052F000712C66246394852D8621B1F04420A1F0A1
:105300007982DA820E94101C9C838B833D8291E01B
:105310008C2D862109F490E09E8349815A816B810E
:105320007C818D810E94E2247394660CF6E07F12EA
:10533000E2CFF8013197C082D39428E0D212CFCFC8
:105340000E942015772473944EC080E0CBCE84E772
:1053500092E0E0CE80919903843031F10E942717CA
:1053600010926D0348E150E080E40FB6F894A895E0
:10537000409360000FBE8093600083B7817F84609C
:1053800083BF83B7816083BF7894889583B78E7F0E
:1053900083BF0FB6F894A8958091600088618093D0
:1053A0006000109260000FBE80919803882361F026
:1053B0000E946F25E4EAF2E08191811189C4ACEA90
:1053C000B2E0AE17BF07C1F780919903853009F4A9
:1053D000C1CF0E94090E0E940F1568CF981379CF94
:1053E0000E943727712C0E94EA148091B30288230F
:1053F00009F464C08091B202E0915903E695E81B7C
:10540000E093AE02823009F034C1F0E0EB56FD4F7C
:10541000E4910E2F10E09EE8E92E94E1F92E8091A0
:10542000AF02882361F01092AF020E94781C909323
:10543000AD028093AC021092B1021092B0020E94B1
:10544000781C9C01E091AC02F091AD028E1B9F0B89
:105450008F3F9F4798F5809172028823B1F0109298
:1054600072028091700290917102281B390B2F3FBC
:105470003F4758F4805D9A48909371028093700280
:105480008091B40288608093B402C090B002D09042
:10549000B102E00FF11FF093AD02E093AC028CEA91
:1054A00092E0F70109958091B0029091B102892BA9
:1054B00029F4CD2819F081E080937202809166036F
:1054C000882309F49FC08091A1029091A2020E94BA
:1054D000011CC29708F46CC00E94101C9093A20299
:1054E0008093A10288EE93E09093EF058093EE0500
:1054F0000E94EA14882309F455C18AEB92E00E94C5
:105500006E0D809173020E94DE0C823009F4FFC0A0
:1055100008F0F5C08111F8C082EB92E00E94AE0D58
:1055200080917E020E9451069C01C9012F5F3F4F6E
:10553000DC014C914032C9F30E948B1188EC92E05F
:105540000E946E0D80917D020E9451069C01C9014E
:105550002F5F3F4FFC0140814032C9F30E948B1105
:1055600084EC92E00E946E0D80917B0290917C020F
:105570002091290130912A018217930709F0CDC0AB
:1055800020917A02203209F0C8C024E732E0C90134
:105590002F5F3F4FFC0140814032C9F30E948B11C5
:1055A00082EC92E00E946E0D80912B010E94EE0C25
:1055B0008091E6039091E703892B09F0F8C0809170
:1055C00065038823F9F00E947A0869A37AA38BA364
:1055D0009CA38091610390916203A0916303B091B9
:1055E000640329A13AA14BA15CA1281B390B4A0BEA
:1055F0005B0BDA01C9018F3F9F4FAF4FBF4710F4DC
:105600000E94271771100E9442170E940F15909157
:10561000A302891721F08093A3020E947A08809147
:105620009903843009F03BCE83E08093E9008091B8
:10563000E80082FF34CE8091E80090E085FF06C04C
:105640000E942D07882309F493C191E08091E8001E
:105650008B778093E800992309F421CE8981EFEFBD
:10566000E80FE33108F0AEC1F0E0E35EFC4C0C94CF
:10567000DB31863059F4F0E0EE56FD4FE4910E2F09
:1056800010E08EE7E82E84E1F82EC9CE893061F46F
:10569000E695F0E0E157FD4FE4910E2F10E0BAE0FF
:1056A000EB2EB4E1FB2EBBCE8F3061F4E695F0E03B
:1056B000E457FD4FE4910E2F10E0AEE7EA2EA3E190
:1056C000FA2EADCE853159F4F0E0E757FD4FE49165
:1056D0000E2F10E0F2EFEF2EF2E1FF2EA0CE08E247
:1056E00010E0E8E5EE2EE2E1FE2E883109F497CED7
:1056F00000ED17E074E6E72E78E0F72E90CE8330C9
:1057000049F089E992E00ACF8CEA92E007CF86EA75
:1057100092E004CF8FE992E001CF90932A01809329
:10572000290120E220937A029C0150E040E029A365
:105730003AA34BA35CA31092790254E7C52E52E022
:10574000D52E6FE6E62E62E0F62E860169A17AA1DB
:105750008BA19CA1A50194010E94B931605D6033C9
:1057600019F4C016D10649F089A19AA1ABA1BCA138
:10577000892B8A2B8B2B09F460E2D80114966C9349
:1057800069A17AA18BA19CA1A50194010E94B931C4
:1057900029A33AA34BA35CA301501109E016F1061B
:1057A000A9F6F3CE8AEC92E00E946E0D01CF8091B3
:1057B0006603882309F403CF8091A0028111FFCEF4
:1057C0000E9442172091E6033091E703211531052D
:1057D00009F4F5CE80E041E050E0082F10E02A0106
:1057E000082E02C0440C551C0A94E2F7B90164214A
:1057F0007521672B11F48F5FF0CF90919F0290FF7E
:105800009EC0880F880F880F80932E01109231015F
:10581000895F80932F0183E08093320124E630E09A
:1058200047E050E06CE271E088E70E942D2F892B61
:1058300009F0C5CEA80195E0440F551F9A95E1F7F0
:1058400080919F0280FF8DC0EFE7F2E080E2DF01F0
:105850001D928A95E9F7EEE8F1E0FEA3EDA36AE870
:1058600071E087E0E82EDD24D394ADA1BEA12D9197
:10587000BEA3ADA3FB012190BF01240E352E311C28
:10588000C10188519C4F1C01E22FF0E0E158FD4F0F
:1058900090E080E06E2C681AFD2C082E01C0FF0CF1
:1058A0000A94EAF73AA229A200E0A9A1BAA11D919F
:1058B000BAA3A9A31F21262D201B2770C22E022EBA
:1058C000000C330BB12F01C0BB0FCA94EAF7CB2EEB
:1058D0003195219531092770332701C016952A95F6
:1058E000EAF7C12A1081C12AC0820F5F0830E9F6A9
:1058F000019631968830910569F6E2E9F1E02DA133
:105900003EA1E217F30709F0B0CF04E610E020E271
:1059100030E04FE752E060E488E70E94542F892B83
:1059200009F04DCE409450948091E6039091E703A6
:10593000482259225092E7034092E60340CE8295D6
:10594000880F807680932E0198013695279536959D
:10595000279520933101815E80932F01209332019E
:105960005DCF48515C4F04E610E020E230E0D3CF39
:1059700000E210E0AE014F5F5F4F7A018091E800D6
:1059800085FD0AC08091E8008B778093E8000E9433
:105990002D07882399F359CE8091F100D7018D937B
:1059A0007D010150110951F750CE1A828CE08B8392
:1059B0001BC08A81833009F140F4813069F0823064
:1059C00009F49CC18FEF89830FC08430D9F71B8203
:1059D0001C821D821E8208C00E947A080E94E1314A
:1059E0006B837C838D839E8340E250E0BE016F5FBA
:1059F0007F4F82E00E94A31152CC2B81822F90E036
:105A0000FE013496245E8830910570F7DC01AC55B8
:105A1000BD4F3C91319301962813F5CFE5CF8A8194
:105A2000823049F0853071F68091590380FF14C0AF
:105A30000E94A214D9CF2B813C814D815E8129A384
:105A40003AA34BA35CA3CA01B9010E94E13188E2E9
:105A500090E00E949F32C8CF81608093590360E03C
:105A600086950E949E1CC0CF4C816B818A810E94CA
:105A700022169827892798279E838D83B5CF2D815D
:105A80003E813227232732274C816B818A810E94F5
:105A90009915AACF0E94C015A7CF9A81923009F01C
:105AA00091CF8830D9F1893009F463C08B8183307C
:105AB00089F1A8F48130E1F0823009F095CF8C8132
:105AC000882309F4B5CF80915903816080935903ED
:105AD00060E086950E949E1C60E08C81C2CF84307D
